{
  "contractName": "IPFSInbox",
  "abi": [
    {
      "inputs": [],
      "payable": false,
      "stateMutability": "nonpayable",
      "type": "constructor"
    },
    {
      "anonymous": false,
      "inputs": [
        {
          "indexed": false,
          "internalType": "string",
          "name": "response",
          "type": "string"
        }
      ],
      "name": "inboxResponse",
      "type": "event"
    },
    {
      "anonymous": false,
      "inputs": [
        {
          "indexed": false,
          "internalType": "string",
          "name": "_ipfsHash",
          "type": "string"
        },
        {
          "indexed": false,
          "internalType": "address",
          "name": "_address",
          "type": "address"
        }
      ],
      "name": "ipfsSent",
      "type": "event"
    },
    {
      "constant": false,
      "inputs": [
        {
          "internalType": "address",
          "name": "_address",
          "type": "address"
        },
        {
          "internalType": "string",
          "name": "_ipfsHash",
          "type": "string"
        }
      ],
      "name": "sentIPFS",
      "outputs": [],
      "payable": false,
      "stateMutability": "nonpayable",
      "type": "function"
    },
    {
      "constant": false,
      "inputs": [],
      "name": "checkInbox",
      "outputs": [],
      "payable": false,
      "stateMutability": "nonpayable",
      "type": "function"
    }
  ],
  "bytecode": "0x608060405234801561001057600080fd5b50610661806100206000396000f3fe608060405234801561001057600080fd5b50600436106100365760003560e01c806306271b3f1461003b5780635c23d56f14610116575b600080fd5b6101146004803603604081101561005157600080fd5b81019080803573ffffffffffffffffffffffffffffffffffffffff1690602001909291908035906020019064010000000081111561008e57600080fd5b8201836020820111156100a057600080fd5b803590602001918460018302840111640100000000831117156100c257600080fd5b91908080601f016020809104026020016040519081016040528093929190818152602001838380828437600081840152601f19601f820116905080830192505050505050509192919290505050610120565b005b61011e610333565b005b6000808373ffffffffffffffffffffffffffffffffffffffff1673ffffffffffffffffffffffffffffffffffffffff1681526020019081526020016000208054600181600116156101000203166002900480601f0160208091040260200160405190810160405280929190818152602001828054600181600116156101000203166002900480156101f25780601f106101c7576101008083540402835291602001916101f2565b820191906000526020600020905b8154815290600101906020018083116101d557829003601f168201915b50505050506060819050600081511461020a57600080fd5b826000808673ffffffffffffffffffffffffffffffffffffffff1673ffffffffffffffffffffffffffffffffffffffff168152602001908152602001600020908051906020019061025c929190610587565b507fd3896131bca4353bcda578f36768163e2ca77cefb2988be6c4e81939ca298ac0838560405180806020018373ffffffffffffffffffffffffffffffffffffffff1673ffffffffffffffffffffffffffffffffffffffff168152602001828103825284818151815260200191508051906020019080838360005b838110156102f25780820151818401526020810190506102d7565b50505050905090810190601f16801561031f5780820380516001836020036101000a031916815260200191505b50935050505060405180910390a150505050565b60606000803373ffffffffffffffffffffffffffffffffffffffff1673ffffffffffffffffffffffffffffffffffffffff1681526020019081526020016000208054600181600116156101000203166002900480601f0160208091040260200160405190810160405280929190818152602001828054600181600116156101000203166002900480156104075780601f106103dc57610100808354040283529160200191610407565b820191906000526020600020905b8154815290600101906020018083116103ea57829003601f168201915b50505050509050600081511415610485577f2974ec83b4de9f76155d0c3e88bd3c0645c56c1795807f37d3f9e95caafeee5760405180806020018281038252600b8152602001807f456d70747920496e626f7800000000000000000000000000000000000000000081525060200191505060405180910390a1610584565b604051806020016040528060008152506000803373ffffffffffffffffffffffffffffffffffffffff1673ffffffffffffffffffffffffffffffffffffffff16815260200190815260200160002090805190602001906104e6929190610587565b507f2974ec83b4de9f76155d0c3e88bd3c0645c56c1795807f37d3f9e95caafeee57816040518080602001828103825283818151815260200191508051906020019080838360005b8381101561054957808201518184015260208101905061052e565b50505050905090810190601f1680156105765780820380516001836020036101000a031916815260200191505b509250505060405180910390a15b50565b828054600181600116156101000203166002900490600052602060002090601f016020900481019282601f106105c857805160ff19168380011785556105f6565b828001600101855582156105f6579182015b828111156105f55782518255916020019190600101906105da565b5b5090506106039190610607565b5090565b61062991905b8082111561062557600081600090555060010161060d565b5090565b9056fea265627a7a7231582084683d683e7072facff1ea97305ace1387be65df4a8b70ea1571c98ce0c01c6964736f6c63430005100032",
  "source": "pragma solidity ^0.5.16;\r\n\r\ncontract IPFSInbox {\r\n    // structures\r\n    mapping (address => string) ipfsInbox;\r\n\r\n    // events\r\n    event ipfsSent(string _ipfsHash, address _address);\r\n    event inboxResponse(string response);\r\n\r\n    // modifiers\r\n    modifier notFull (string memory _string) {bytes memory stringTest = bytes(_string); require (stringTest.length == 0); _;}\r\n\r\n    // an empty constructor that creates an insaance of the contract\r\n    constructor() public {}\r\n\r\n    // a function that takes in the receiver's address and the IPFS adress. Places the IPFS adress in the receiver's inbox.\r\n    function sentIPFS(address _address, string memory _ipfsHash)\r\n        notFull(ipfsInbox[_address])\r\n        public\r\n    {\r\n        ipfsInbox[_address] = _ipfsHash;\r\n        emit ipfsSent(_ipfsHash, _address);\r\n    }\r\n\r\n    // a function that checks your inbox and empties it afterwards. Returns an address if there is none, or \"Emtpty inbox\"\r\n    function checkInbox()\r\n        public\r\n    {\r\n        string memory ipfs_hash = ipfsInbox[msg.sender];\r\n        if(bytes(ipfs_hash).length == 0) {\r\n            emit inboxResponse(\"Empty Inbox\");\r\n        } else {\r\n            ipfsInbox[msg.sender] = \"\";\r\n            emit inboxResponse(ipfs_hash);\r\n        }\r\n\r\n    }\r\n}\r\n",
  "sourcePath": "D:/SCHOOL/5th Semester/ETHLagos hackathon/ethereum-ipfs/contracts/IPFSInbox.sol",
  "compiler": {
    "name": "solc",
    "version": "0.5.16+commit.9c3226ce.Emscripten.clang"
  },
  "schemaVersion": "3.2.5",
  "updatedAt": "2020-10-09T03:24:04.630Z",
  "networkType": "ethereum",
  "devdoc": {
    "methods": {}
  },
  "userdoc": {
    "methods": {}
  }
}